:020000020000FC
:1000000000C00FEF0DBF0FE30FBF02E0009300042D
:1000100005E000938A0101E00093A2010AE1009348
:10002000260A00E00093270A06E000932A0A00E06F
:1000300000932B0A03E20093010A01E00093000AF7
:1000400000E10093820103E00093920101E000933C
:10005000440A01E00093450A04E00093410A01E0EC
:100060000093400A08ED04BF07E0009361000027F9
:1000700004BF789404D00000FECF089508950F9334
:0600800000000F9108953D
:00000001FF
