:020000020000FC
:020000003DC001
:02003400A3C067
:10007C000FEF0DBF0FE30FBF02E00093000405E08C
:10008C0000938A0101E00093A20101E00CBB0AE19C
:10009C000093260A00E00093270A04E100932A0A41
:1000AC0000E000932B0A03E20093010A00E00093A6
:1000BC00000A00E10093820103E00093920104E244
:1000CC000093410A01E00093440A01E00093450AC1
:1000DC0001E00093400A08ED04BF07E000936100C3
:1000EC00002704BF78940000FECF0F9300E000932C
:1000FC00000A00270093200A0093210A0F9108950B
:10010C000F9301E00093000A0F9108950F93EDDF18
:10011C000CB3087F02600CBB04E100932A0A00E0D8
:10012C0000932B0AEDDF0F9108950F93DEDF0CB3D4
:10013C00087F04600CBB06E000932A0A00E00093E1
:10014C002B0ADEDF0F9108950F93CFDF0CB3087FDE
:10015C0001600CBB0F9108950027E0990FEF0895F3
:10016C000027E2990FEF08950027E1990FEF08950A
:10017C000F931F93000010914C0A00914D0A1430FC
:10018C000CF412C019300CF005C0EEDF0F3F11F467
:10019C00DBDF000011310CF407C018310CF004C087
:0E01AC00DBDF0F3F09F4B2DF1F910F911895B2
:00000001FF
